{
  "contractName": "TokenFarm",
  "abi": [
    {
      "inputs": [
        {
          "internalType": "contract DappToken",
          "name": "_dappToken",
          "type": "address"
        },
        {
          "internalType": "contract DaiToken",
          "name": "_daiToken",
          "type": "address"
        }
      ],
      "payable": false,
      "stateMutability": "nonpayable",
      "type": "constructor"
    },
    {
      "constant": true,
      "inputs": [],
      "name": "daiToken",
      "outputs": [
        {
          "internalType": "contract DaiToken",
          "name": "",
          "type": "address"
        }
      ],
      "payable": false,
      "stateMutability": "view",
      "type": "function"
    },
    {
      "constant": true,
      "inputs": [],
      "name": "dappToken",
      "outputs": [
        {
          "internalType": "contract DappToken",
          "name": "",
          "type": "address"
        }
      ],
      "payable": false,
      "stateMutability": "view",
      "type": "function"
    },
    {
      "constant": true,
      "inputs": [
        {
          "internalType": "address",
          "name": "",
          "type": "address"
        }
      ],
      "name": "hasStaked",
      "outputs": [
        {
          "internalType": "bool",
          "name": "",
          "type": "bool"
        }
      ],
      "payable": false,
      "stateMutability": "view",
      "type": "function"
    },
    {
      "constant": true,
      "inputs": [
        {
          "internalType": "address",
          "name": "",
          "type": "address"
        }
      ],
      "name": "isStaking",
      "outputs": [
        {
          "internalType": "bool",
          "name": "",
          "type": "bool"
        }
      ],
      "payable": false,
      "stateMutability": "view",
      "type": "function"
    },
    {
      "constant": true,
      "inputs": [],
      "name": "name",
      "outputs": [
        {
          "internalType": "string",
          "name": "",
          "type": "string"
        }
      ],
      "payable": false,
      "stateMutability": "view",
      "type": "function"
    },
    {
      "constant": true,
      "inputs": [
        {
          "internalType": "uint256",
          "name": "",
          "type": "uint256"
        }
      ],
      "name": "stakers",
      "outputs": [
        {
          "internalType": "address",
          "name": "",
          "type": "address"
        }
      ],
      "payable": false,
      "stateMutability": "view",
      "type": "function"
    },
    {
      "constant": true,
      "inputs": [
        {
          "internalType": "address",
          "name": "",
          "type": "address"
        }
      ],
      "name": "stakingBalance",
      "outputs": [
        {
          "internalType": "uint256",
          "name": "",
          "type": "uint256"
        }
      ],
      "payable": false,
      "stateMutability": "view",
      "type": "function"
    },
    {
      "constant": false,
      "inputs": [
        {
          "internalType": "uint256",
          "name": "_amount",
          "type": "uint256"
        }
      ],
      "name": "stakeTokens",
      "outputs": [],
      "payable": false,
      "stateMutability": "nonpayable",
      "type": "function"
    },
    {
      "constant": false,
      "inputs": [
        {
          "internalType": "address",
          "name": "recipient",
          "type": "address"
        }
      ],
      "name": "issueTokens",
      "outputs": [],
      "payable": false,
      "stateMutability": "nonpayable",
      "type": "function"
    }
  ],
  "bytecode": "0x60806040526040518060400160405280600f81526020017f4441707020546f6b656e204661726d00000000000000000000000000000000008152506000908051906020019061004f929190610123565b5034801561005c57600080fd5b50604051610bb0380380610bb08339818101604052604081101561007f57600080fd5b81019080805190602001909291908051906020019092919050505081600160006101000a81548173ffffffffffffffffffffffffffffffffffffffff021916908373ffffffffffffffffffffffffffffffffffffffff16021790555080600260006101000a81548173ffffffffffffffffffffffffffffffffffffffff021916908373ffffffffffffffffffffffffffffffffffffffff16021790555050506101c8565b828054600181600116156101000203166002900490600052602060002090601f016020900481019282601f1061016457805160ff1916838001178555610192565b82800160010185558215610192579182015b82811115610191578251825591602001919060010190610176565b5b50905061019f91906101a3565b5090565b6101c591905b808211156101c15760008160009055506001016101a9565b5090565b90565b6109d9806101d76000396000f3fe608060405234801561001057600080fd5b50600436106100935760003560e01c80636f49712b116100665780636f49712b146102015780637547c7a31461025d578063be22f5461461028b578063c93c8f34146102d5578063fd5e6dd11461033157610093565b806306fdde03146100985780633ff54c711461011b57806345bc78ab1461015f5780635eb186f8146101b7575b600080fd5b6100a061039f565b6040518080602001828103825283818151815260200191508051906020019080838360005b838110156100e05780820151818401526020810190506100c5565b50505050905090810190601f16801561010d5780820380516001836020036101000a031916815260200191505b509250505060405180910390f35b61015d6004803603602081101561013157600080fd5b81019080803573ffffffffffffffffffffffffffffffffffffffff16906020019092919050505061043d565b005b6101a16004803603602081101561017557600080fd5b81019080803573ffffffffffffffffffffffffffffffffffffffff169060200190929190505050610574565b6040518082815260200191505060405180910390f35b6101bf61058c565b604051808273ffffffffffffffffffffffffffffffffffffffff1673ffffffffffffffffffffffffffffffffffffffff16815260200191505060405180910390f35b6102436004803603602081101561021757600080fd5b81019080803573ffffffffffffffffffffffffffffffffffffffff1690602001909291905050506105b2565b604051808215151515815260200191505060405180910390f35b6102896004803603602081101561027357600080fd5b81019080803590602001909291905050506105d2565b005b610293610922565b604051808273ffffffffffffffffffffffffffffffffffffffff1673ffffffffffffffffffffffffffffffffffffffff16815260200191505060405180910390f35b610317600480360360208110156102eb57600080fd5b81019080803573ffffffffffffffffffffffffffffffffffffffff169060200190929190505050610948565b604051808215151515815260200191505060405180910390f35b61035d6004803603602081101561034757600080fd5b8101908080359060200190929190505050610968565b604051808273ffffffffffffffffffffffffffffffffffffffff1673ffffffffffffffffffffffffffffffffffffffff16815260200191505060405180910390f35b60008054600181600116156101000203166002900480601f0160208091040260200160405190810160405280929190818152602001828054600181600116156101000203166002900480156104355780601f1061040a57610100808354040283529160200191610435565b820191906000526020600020905b81548152906001019060200180831161041857829003601f168201915b505050505081565b6000600460008373ffffffffffffffffffffffffffffffffffffffff1673ffffffffffffffffffffffffffffffffffffffff168152602001908152602001600020549050600081111561057057600160009054906101000a900473ffffffffffffffffffffffffffffffffffffffff1673ffffffffffffffffffffffffffffffffffffffff1663a9059cbb83836040518363ffffffff1660e01b8152600401808373ffffffffffffffffffffffffffffffffffffffff1673ffffffffffffffffffffffffffffffffffffffff16815260200182815260200192505050602060405180830381600087803b15801561053357600080fd5b505af1158015610547573d6000803e3d6000fd5b505050506040513d602081101561055d57600080fd5b8101908080519060200190929190505050505b5050565b60046020528060005260406000206000915090505481565b600160009054906101000a900473ffffffffffffffffffffffffffffffffffffffff1681565b60066020528060005260406000206000915054906101000a900460ff1681565b60008111610648576040517f08c379a00000000000000000000000000000000000000000000000000000000081526004018080602001828103825260158152602001807f416d6f756e742063616e6e6f74206265207a65726f000000000000000000000081525060200191505060405180910390fd5b600260009054906101000a900473ffffffffffffffffffffffffffffffffffffffff1673ffffffffffffffffffffffffffffffffffffffff166323b872dd3330846040518463ffffffff1660e01b8152600401808473ffffffffffffffffffffffffffffffffffffffff1673ffffffffffffffffffffffffffffffffffffffff1681526020018373ffffffffffffffffffffffffffffffffffffffff1673ffffffffffffffffffffffffffffffffffffffff1681526020018281526020019350505050602060405180830381600087803b15801561072557600080fd5b505af1158015610739573d6000803e3d6000fd5b505050506040513d602081101561074f57600080fd5b81019080805190602001909291905050505080600460003373ffffffffffffffffffffffffffffffffffffffff1673ffffffffffffffffffffffffffffffffffffffff16815260200190815260200160002060008282540192505081905550600560003373ffffffffffffffffffffffffffffffffffffffff1673ffffffffffffffffffffffffffffffffffffffff16815260200190815260200160002060009054906101000a900460ff166108665760033390806001815401808255809150509060018203906000526020600020016000909192909190916101000a81548173ffffffffffffffffffffffffffffffffffffffff021916908373ffffffffffffffffffffffffffffffffffffffff160217905550505b6001600560003373ffffffffffffffffffffffffffffffffffffffff1673ffffffffffffffffffffffffffffffffffffffff16815260200190815260200160002060006101000a81548160ff0219169083151502179055506001600660003373ffffffffffffffffffffffffffffffffffffffff1673ffffffffffffffffffffffffffffffffffffffff16815260200190815260200160002060006101000a81548160ff02191690831515021790555061091f3361043d565b50565b600260009054906101000a900473ffffffffffffffffffffffffffffffffffffffff1681565b60056020528060005260406000206000915054906101000a900460ff1681565b6003818154811061097557fe5b906000526020600020016000915054906101000a900473ffffffffffffffffffffffffffffffffffffffff168156fea265627a7a72315820cd987fe8bcefe3c3531eb4cdbceceff3710d1325316d92802f95133b9c594ce164736f6c63430005100032",
  "source": "pragma solidity >=0.5.0;\n\nimport './DappToken.sol';\nimport './DaiToken.sol';\n\ncontract TokenFarm {\n\n    string public name = \"DApp Token Farm\";\n    DappToken public dappToken;\n    DaiToken public daiToken;\n\n    //array of all the user addresses that have staked their token\n    address[] public stakers;\n\n    mapping (address => uint256) public stakingBalance;\n    mapping (address => bool) public hasStaked;\n    mapping (address => bool) public isStaking;\n\n    constructor (DappToken _dappToken, DaiToken _daiToken) public {\n        dappToken = _dappToken;\n        daiToken = _daiToken;\n    }\n\n    //stake tokens (deposit) and issues the same token to the caller of the function\n    function stakeTokens(uint _amount) public { \n        require(_amount > 0, \"Amount cannot be zero\");\n\n        //transfer DAI token to this tokenFarm contract to stake\n        daiToken.transferFrom(msg.sender, address(this), _amount);\n        //update stakingBalance\n        stakingBalance[msg.sender] += _amount;\n        //adding user to add in the staking array\n        if(!hasStaked[msg.sender]){\n            stakers.push(msg.sender);\n        }\n        //update staking status\n        hasStaked[msg.sender] = true;\n        isStaking[msg.sender] = true;\n\n        //issue tokens to the caller\n        issueTokens(msg.sender);\n    }\n\n    //unstake tokens (withdraw)\n\n    //issue tokens\n    function issueTokens(address recipient) public {\n        uint balance = stakingBalance[recipient];\n        if (balance > 0){\n            dappToken.transfer(recipient, balance);\n        }\n    }\n\n}\n",
  "sourcePath": "/home/rohit/workspace/defi_tutorial/src/contracts/TokenFarm.sol",
  "compiler": {
    "name": "solc",
    "version": "0.5.16+commit.9c3226ce.Emscripten.clang"
  },
  "schemaVersion": "3.2.3",
  "updatedAt": "2020-09-04T10:23:15.398Z",
  "networkType": "ethereum",
  "devdoc": {
    "methods": {}
  },
  "userdoc": {
    "methods": {}
  }
}